S00C0000666F746F2E7372656360
S11300000C94DC000C94F9000C94F9000C94F900A5
S11300100C94F9000C94F9000C94F9000C94F90078
S11300200C94F9000C94F9000C94F9000C94F90068
S11300300C94F9000C94F9000C94F9000C94F90058
S11300400C94F9000C94F9000C94F9000C94F90048
S11300500C94F9000C94F9000C94F9000C94F90038
S11300600C94F9000C94F9006E616E00696E6600E0
S113007000407A10F35A00A0724E18090010A5D45B
S1130080E80000E87648170000E40B54020000CAB8
S11300909A3B000000E1F5050000809698000000FE
S11300A040420F000000A08601000000102700005D
S11300B00000E803000000006400000000000A00E3
S11300C0000000000100000000002C76D888DC67E6
S11300D04F0823DFC1DFAE59E1B1B796E5E3E4533E
S11300E0C63AE651997696E8E6C28426EB898C9B5B
S11300F062ED407C6FFCEFBC9C9F40F2BAA56FA5FB
S1130100F490055A2AF75C936B6CF9676DC11BFC7C
S1130110E0E40D47FEF520E6B500D0ED902E030097
S1130120943577050080841E080000204E0A0000E4
S113013000C80C333333330F986E12831141EF8DA3
S11301402114893BE65516CFFEE6DB18D1844B38E3
S11301501BF77C1D901DA4BBE424203284725E2214
S11301608100C9F124ECA1E53D276364696E6F70D9
S1130170737578585B65666745464700616E006E27
S113018066696E69747900CDCCCC3D0AD7233C17DF
S1130190B7D13877CC2B329595E6241FB14F0A009E
S11301A00020410000C84200401C4620BCBE4CCA8E
S11301B01B0E5AAEC59D740011241FBECFEFD8E0AC
S11301C0DEBFCDBF11E0A0E0B1E0E4E0F9E102C0A0
S11301D005900D92A231B107D9F721E0A2E1B1E077
S11301E001C01D92A632B207E1F70E9432010C94BD
S11301F0800C0C9400009091C00095FFFCCF80937C
S1130200C60090E080E008958091C00087FFFCCF95
S11302108091C60090E0089587E690E09093C50031
S11302208093C40088E18093C10086E08093C2007B
S1130230089580E480937C00EAE7F0E087E080831F
S1130240808180688083089588E09DE3909387008F
S11302508093860082E8809380008AE18093810005
S1130260219A089587E690E09093C5008093C40096
S113027088E18093C10086E08093C20082E191E02E
S11302802BEF30E030931B0120931A0124E031E07E
S113029030931D0120931C0123E02093150110923B
S11302A01F0110921E0190932501809324019093C5
S11302B0230180932201909321018093200180E403
S11302C080937C0087E080937A0080917A00806834
S11302D080937A0088E09DE3909387008093860062
S11302E082E8809380008AE180938100219AC0E0B3
S11302F0D1E080917A00806480937A0080917A00C2
S113030084FFFCCF80917A00806180937A00809191
S11303107800909179002091860030918700309385
S11303208900209388001F921F929F938F93DF93DD
S1130330CF930E94F30B0F900F900F900F900F909C
S11303400F90D7CFFC01CA01DB0120FD08C023FDBB
S113035005C022FF02C0B383A283918380830895E2
S1130360CF92DF92EF92FF92CF93DF9300D000D031
S1130370CDB7DEB76B017C0183E044FD10C084E09F
S113038046FD0DC0D601F701AA0FBB1FEE1FFF1FCC
S11303901094D1F7CA0EDB1EEE1EFF1E81E0CC0CBA
S11303A0DD1CEE1CFF1C8150D1F7D701C601820F62
S11303B0911DA11DB11DBC01CD010F900F900F9097
S11303C00F90DF91CF91FF90EF90DF90CF90089541
S11303D00F931F93CF93DF938C01C8010E94850B69
S11303E0EC0197FD08C00E94530B892BB1F7B801AB
S11303F0CE010E94070CCE01DF91CF911F910F9186
S11304000895B0E0A0E0E7E0F2E00C945009B82EC3
S1130410D92F8B01942EA52EF22E0E94850BFC0160
S11304209927EB3221F08D9791F46894F7F80150F5
S1130430110931F480E0CDB7DEB7EBE00C946C0920
S11304408B2D9D2F0E94850BFC0197FDF3CFCF2DA3
S1130450CD7F8F2D807321F5E03311F5680181E0A4
S1130460C81AD108A9F08B2D9D2F0E94850BFC0181
S113047097FD0EC08F7D883579F4C264025011094E
S113048039F08B2D9D2F0E94850BFC0197FF08C02E
S1130490C12CD12C76011DC0F6FE2EC0C26086018F
S11304A0C12CD12C760120ED2E0F283040F1C4FD53
S11304B009C02A3020F1C6FF05C02F7D8FEE820FC0
S11304C08630E0F06B2D7D2FCF010E94070CC1FF19
S11304D0B1CFC7FF08C0F094E094D094C094C11C7D
S11304E0D11CE11CF11C2C2FB701A601892D9A2DDA
S11304F00E94A20181E09FCFC261D1CF27504C2F2F
S1130500C701B6010E94B0016B017C01C2600150B9
S11305101109F9F28B2D9D2F0E94850BFC0197FF89
S1130520C2CFD7CFA0E2B0E0E8E9F2E00C944E09E4
S11305305C016B017A01CE0101964C0180E2F40169
S113054011928A95E9F7F5017380890150E040E042
S1130550B0E020E0A0E061E070E0F80173FC959168
S113056073FE9191892F8F01911107C010E000E073
S1130570C801A096EDE00C946A099E3519F4411562
S1130580510531F1A4171506ECF49D3549F19D325E
S1130590C9F4222309F1982F969596959695F4011E
S11305A0E90FF11D982F97709B0101C0220F9A95B6
S11305B0EAF79081292B20838B1781F08B1730F475
S11305C08F5FE9CF2111E7CFB92FE5CF8150E3CF7A
S11305D0A1E04F5F5F4FC1CF21E0FBCF20E0F9CF17
S11305E0222319F08E8180628E83AA2361F0F401A4
S11305F09E012F5D3F4F8081DF01319680958C9362
S1130600E217F307C1F777247394C5010E94850BA1
S113061097FD16C0282F269526952695F401E20FFE
S1130620F11D208130E0AC014770552702C035959B
S113063027954A95E2F720FD06C0B5010E94070CF4
S1130640772061F093CFE114F10419F0F70181935D
S11306507F01F1E0CF1AD108712CB9F6E114F1044D
S113066009F486CFF701108283CFAAE0B0E0EBE370
S1130670F3E00C944E09782EC92E8B015A010E9486
S1130680850B89879A8789859A85992729852B32AD
S113069031F050E8952E8D9719F0912C13C0912CC0
S11306A00150110929F480E02A96EDE00C946A09BE
S11306B0872D9C2D0E94850B89879A8789859A8529
S11306C097FDF1CF89859A850E945C0B8936910547
S11306D009F4D8C08E36910509F4EAC019821A8249
S11306E01B821C82F12CE12C29852053D92C2A3021
S11306F008F003C16894D1F8892D887092FEDFC098
S1130700811103C0FFEFEF1AFF0A0150110951F0E4
S1130710872D9C2D0E94850B89879A8729853A8588
S113072037FFCBC0D1FEBFCF89858F7D853409F0DB
S113073053C0480131E0831A910809F4B4CF872DDE
S11307409C2D0E94850B89879A8789859A8597FDB8
S1130750AACF9927A985AB3221F08D9771F46894BB
S1130760D4F84801B2E08B1A910809F49CCF872D84
S11307709C2D0E94850B89879A8789859A85C097C5
S11307800A9708F090CF10E000E0C801110FAA0BFF
S1130790BB0B8D839E83AF83B8872985205340E2AA
S11307A0BC01CD010E94B0018B0191E0891A91082E
S11307B059F0872D9C2D0E94850B89879A878985FE
S11307C09A85C0970A9708F3D4FE03C01195019542
S11307D01109E00EF11E8401012B49F0A985BA85A7
S11307E0B7FD05C0672D7C2DCD010E94070C6981E2
S11307F07A818B819C810E94800969837A838B83AF
S11308009C8369817A818B819C81F7FE9FC0F194DE
S1130810E194F108EBE9F1E0FE83ED838D809E80A5
S1130820B8E18B1A910800E210E081C0015011096F
S113083081F0872D9C2D0E94850B7C0197FD09C0BA
S11308400E945C0BD81611F1672D7C2DC7010E9404
S1130850070CA981BA81A258B14009F024CF80E0E5
S113086090E0A0E8BFE7BC01CD01D92CD7FC90589B
S1130870A114B10429F0F501608371838283938309
S113088081E012CF2FE731E03A832983A981BA812D
S11308901196BA83A983FD013197D490D110C6CFA4
S11308A0AF57B140E1F680E090E0A0ECBFE7DBCFCA
S11308B08CE791E09A838983E9CF9D2C15CF882317
S11308C019F031E0E31AF10840E269817A818B8101
S11308D09C810E94B00169837A838B839C83898184
S11308E09A81AB81BC8188399949A949B94108F4F5
S11308F00CCFF92DF660DF2E08CF2E3F09F012CF72
S113090093FC10CF6894D3F800CFED81FE8125913C
S11309103591459154910E94BD0969837A838B83F3
S11309209C8369817A818B819C81E01AF10AE016AB
S1130930F10658F72D813E81245031093E832D83E1
S1130940169507952815390591F790CFA3EBB1E0DB
S1130950BE83AD8363CFA6E0B0E0E1EBF4E00C949A
S11309604C095C016D837E83842E552EDC01179621
S11309701C921E921697912CD5011396FC90ED8132
S1130980FE81F3FC8591F3FE8191182FFE83ED83A4
S11309908823F9F090E00E94530B892B21F0C501C4
S11309A00E94E801E9CF153251F4ED81FE81F3FC98
S11309B01591F3FE1191FE83ED83153269F4C5019F
S11309C00E94850B97FDA7C01817B1F2B5010E94CC
S11309D0070C892D90E0A3C000E01A3249F4ED81A0
S11309E0FE81F3FC1591F3FE1191FE83ED8301E08A
S11309F0D12CC12C20ED210F2A3068F101FF42C017
S1130A00C114D10431F3183609F440C01C3609F47A
S1130A1049C01123F1F2612F70E08AE691E00E944F
S1130A20640B892BB1F2E12CF12C00FD06C0E82DFA
S1130A30F52DE190F1908E2E5F2E1E3609F03CC00C
S1130A40D50116964D915C9170E060E0202FC701AE
S1130A500E94A20191CF0260C601B0E0A0E08983A8
S1130A609A83AB83BC8340E2B601CD010E94B001FE
S1130A706B01ED81FE81F3FC1591F3FE1191FE8370
S1130A80ED83B8CFCC24CA94DC2CBDCFED81FE819C
S1130A90F3FC1591F3FE1191FE83ED83183609F0F2
S1130AA0B8CF08600460ED81FE81F3FC1591F3FE7C
S1130AB01191FE83ED83ADCF1336C1F401FD03C064
S1130AC0CC24C394D12CC5010E94850B97FD23C06F
S1130AD0E114F10419F0F70181937F01B1E0CB1A1D
S1130AE0D10889F700FD48CF939446CF1B35D9F43C
S1130AF02D813E81A701B601C5010E9492028D831A
S1130B009E83ED81FE81EF2B69F7D50113968C91BD
S1130B10807309F45ECF8FEF9FEF91105ACF269622
S1130B20EFE00C946809C5010E94E80197FDF3CF3A
S1130B301F3609F443C068F4193689F020F41835D7
S1130B4069F01436C9F1A701B601C5010E94350345
S1130B500CC01337E1F060F41037A9F70064202FBC
S1130B60A701B601C5010E9401028111BBCFCDCFFF
S1130B70153711F1183791F3E6CFE114F10419F0A8
S1130B80F70161927F01B1E0CB1AD10871F0C50180
S1130B900E94850B3C0197FD08C00E94530B892BD2
S1130BA061F3B501C3010E94070CE114F10409F4D7
S1130BB099CFF701108296CF0062D1CF0061CFCFD9
S1130BC0A3E1B0E0E6EEF5E00C9449097C011B01D9
S1130BD05A01DC0117961C921E92169713968C915B
S1130BE081FF4DC3FE0131964F01D70113969C91AD
S1130BF0F10193FD859193FF81911F01882309F4ED
S1130C00F1C2853239F493FD859193FF81911F01DF
S1130C10853239F4B70190E00E94C30B6501560197
S1130C20E4CF10E0712C612CBFE1B61538F08B32A3
S1130C3011F190F4803209F1833229F167FC3CC050
S1130C4020ED280F2A3050F566FE20C0EAE01E9FF2
S1130C50200D1124122F06C08D3291F0803371F7CC
S1130C60689460F8F10193FD859193FF81911F01D0
S1130C708111DACF21C0689461F8689462F8F2CFE8
S1130C80689463F8EFCF689464F8ECCFFAE07F9E41
S1130C90200D1124722E689465F8E4CF8E3229F465
S1130CA066FCA0C2689466F8DDCF8C3619F46894AB
S1130CB067F8D8CF8836B1F29BEB980F933008F0E1
S1130CC06FC0689464F8805E66FE16E0262D2F736C
S1130CD0622E853609F06CC0689466F867FE72C0AF
S1130CE0812F1C3308F08BE344244394480E27E0FF
S1130CF0D5014D915D916D917D916D014C875D871D
S1130D006E877F87042DA4016C857D858E859F85E4
S1130D100E947B0A5C01B981BC87B0FF03C00DE26D
S1130D20B3FF07C00BE261FC04C0062D047062FC33
S1130D3000E2EC85EC705E2E09F454C00111A2C2ED
S1130D40F3E0512CF715A0F483E0572C581A63FCF8
S1130D5008C0B70180E290E00E94C30B5A9451107E
S1130D60F8CF002329F0B701802F90E00E94C30B35
S1130D70FC8508E610E0F3FD02C00CE610E0262D29
S1130D802071622EF8018491811123C0552009F449
S1130D9046CFB70180E290E00E94C30B5A94F6CF8D
S1130DA09BE9980F933008F02DC1E89464F88CCF38
S1130DB0863619F4689467F891CF112309F48ECF1D
S1130DC011508CCF212F183010F027E017E0412C60
S1130DD08FCF61108052B70190E00E94C30B0F5F68
S1130DE01F4FD0CF67FE7AC04A0CFC85F4FF04C0C5
S1130DF08A81813309F44A9414140CF092C028E0D7
S1130E00241510F488E0482E85E090E067FE06C0C3
S1130E10C501B7FE02C080E090E001960111019681
S1130E20112331F0212F30E02F5F3F4F820F931FAA
S1130E307816190619F014F0572C581A862D897053
S1130E4011F4511073C0002329F0B701802F90E0F2
S1130E500E94C30B63FC02C051106FC067FE88C0C0
S1130E603501B7FE02C0712C612CC50186199709A2
S1130E70A401480F591F598B488BB5016419710996
S1130E807B8B6A8B012F10E0119501951109A61433
S1130E90B7040CF459C0AA89BB89A615B7050CF090
S1130EA053C0E889F9898181F1E06F1A71086016ED
S1130EB071060CF44BC0B70190E00E94C30B2FEFF6
S1130EC06216720629F4B7018EE290E00E94C30B09
S1130ED0888999890196998B888BD9CF66FC94CFA0
S1130EE0E12FF0E0EA15FB053CF03CEFA3163FEFE1
S1130EF0B30614F0689467F83296E80DF91D01C042
S1130F001150112319F082918033D1F367FE7CCF05
S1130F1044244394410E1A151B0431F02CF01A1981
S1130F2073CF4424439470CF10E06ECFB70180E2B6
S1130F3090E00E94C30B5A9484CFB70180E390E001
S1130F400E94C30B5A9488CF80E3AECFA614B70493
S1130F5041F49A81963350F4953319F43C8534FF67
S1130F6005C0B70190E00E94C30B10CF81E3F9CF15
S1130F708A81813319F04C854F7E4C87B70190E00C
S1130F800E94C30B112399F0B7018EE290E00E94F6
S1130F90C30B1E5F02E0802F0F5FF401E80FF11D09
S1130FA08081B70190E00E94C30B1013F4CF85E653
S1130FB064FC85E490E0B7010E94C30BB7FC06C053
S1130FC0A114B104C1F45C8554FF15C0B194A1947B
S1130FD0B1088DE2B70190E00E94C30B80E37AE090
S1130FE0A716B10454F4B70190E00E94C30BB701F3
S1130FF0C501C096B8CF8BE2EDCF8F5F6AE0A61A29
S1131000B108EDCF8336B9F0833709F43AC083359C
S113101009F04DC0D501AD90BD906D01612F70E018
S113102066FC02C06FEF7FEFC5010E946F0B8C015D
S1131030689467F80CC0650182E0C80ED11CD50124
S11310408C91898301E010E05401E89467F863FC13
S113105004C07016110609F018F5572C0115110576
S113106009F494CEF50167FC859167FE81915F01D7
S1131070B70190E00E94C30B51105A94015011091A
S1131080EDCFF501A190B1906F01612F70E066FC86
S113109002C06FEF7FEFC5010E947A0B8C01D5CFA0
S11310A0B70180E290E00E94C30B7A94D2CF8436D9
S11310B019F0893609F06FC067FE64C0F5016191CB
S11310C07191819191916F01B62DBF766B2E97FF2F
S11310D009C090958095709561957F4F8F4F9F4F74
S11310E0689467F82AE030E0A4010E941F0CA82E3F
S11310F0A818BA2C062D66FE0AC00E7FA11638F475
S113110064FE04C062FC02C0062D0E7EB12E04FFF4
S11311108EC0FE01EA0DF11D8081803309F080C08C
S1131120097E502F5870552E03FD90C000FF8AC0D1
S11311301A2DB71410F4170D1B1904FF8DC0B70135
S113114080E390E00E94C30B02FF07C088E701FD23
S113115088E590E0B7010E94C30BA11608F488C08B
S1131160AA940A2D10E00F5F1F4F080D191DD80116
S11311708E918D01B70190E00E94C30B08151905EB
S1131180B1F704CED5016D917D916D01072E000C50
S1131190880B990B99CF062D8537E1F40F7E2AE051
S11311A030E007FF35C0D5014D915D916D917D9182
S11311B06D014C875D876E877F87A4016C857D8573
S11311C08E859F850E941F0CA82EA818602EE89477
S11311D067F88FCF097F803791F058F4883589F00C
S11311E08F36A1F0F701868197816396E2E10C9432
S11311F065098837B9F704FD046020E1D1CF0061A7
S1131200FACF64FC066020E132E0CBCF28E0C8CFFF
S1131210F501819191916F01AC0170E060E0C9CF5B
S113122002FD02C0B3947DCFB394B3947ACF802FE0
S1131230867809F476CFF6CFB70180E290E00E9479
S1131240C30BB394B714C0F3512C77CF572C5B184E
S1131250B71408F472CFF8CF802F867809F47DCFC5
S11312608BE201FF80E207FD8DE2B70190E073CFCE
S1131270B70180E390E00E94C30B11506ECF8FEF53
S11312809FEFB3CF24E0512C271508F06CCD84E0F8
S11312905CCD2F923F924F925F926F927F928F928A
S11312A09F92AF92BF92CF92DF92EF92FF920F93F1
S11312B01F93CF93DF93CDB7DEB7CA1BDB0B0FB6FB
S11312C0F894DEBF0FBECDBF09942A8839884888B8
S11312D05F846E847D848C849B84AA84B984C8844E
S11312E0DF80EE80FD800C811B81AA81B981CE0F45
S11312F0D11D0FB6F894DEBF0FBECDBFED0108952A
S1131300E89409C097FB3EF490958095709561959B
S11313107F4F8F4F9F4F9923A9F0F92F96E9BB2751
S11313209395F695879577956795B795F111F8CFCD
S1131330FAF4BB0F11F460FF1BC06F5F7F4F8F4F38
S11313409F4F16C0882311F096E911C0772321F02E
S11313509EE8872F762F05C0662371F096E8862FC6
S113136070E060E02AF09A95660F771F881FDAF71D
S1131370880F9695879597F908950E94D0090C9443
S1131380410A0E94330A38F00E943A0A20F0952359
S113139011F00C942A0A0C94300A11240C94750A46
S11313A00E94520A70F3959FC1F3950F50E0551FA8
S11313B0629FF001729FBB27F00DB11D639FAA27A6
S11313C0F00DB11DAA1F649F6627B00DA11D661FF5
S11313D0829F2227B00DA11D621F739FB00DA11D16
S11313E0621F839FA00D611D221F749F3327A00DD0
S11313F0611D231F849F600D211D822F762F6A2F6C
S113140011249F5750409AF0F1F088234AF0EE0FD0
S1131410FF1FBB1F661F771F881F91505040A9F7FD
S11314209E3F510580F00C942A0A0C94750A5F3F84
S1131430E4F3983ED4F3869577956795B795F79539
S1131440E7959F5FC1F7FE2B880F911D96958795B1
S113145097F9089597F99F6780E870E060E0089530
S11314609FEF80EC089500240A94161617061806B8
S11314700906089500240A94121613061406050694
S11314800895092E0394000C11F4882352F0BB0F25
S113149040F4BF2B11F460FF04C06F5F7F4F8F4F88
S11314A09F4F089557FD9058440F551F59F05F3FC3
S11314B071F04795880F97FB991F61F09F3F79F072
S11314C087950895121613061406551FF2CF4695F4
S11314D0F1DF08C0161617061806991FF1CF869576
S11314E07105610508940895E894BB27662777275A
S11314F0CB0197F90895283008F027E03327DA0163
S1131500990F311D87FD916000966105710539F4CD
S113151032602E5F3D9330E32A95E1F708959F3FB3
S113152030F080387105610509F03C5F3C5F3D9304
S1131530913008F08068911DDF93CF931F930F9330
S1131540FF92EF92192F987F9695E92F969596958D
S1131550E90FFF27E653FF4F99273327EE24FF2493
S1131560A701E70105900894079428F4360FE71EB5
S1131570F81E491F511D660F771F881F991F069477
S1131580A1F70590079428F4E70EF81E491F561F8B
S1131590C11D770F881F991F661F0694A1F7059038
S11315A0079428F4F80E491F561FC71FD11D880F32
S11315B0991F661F771F0694A1F70590079420F4DE
S11315C0490F561FC71FD81F990F661F771F881F03
S11315D00694A9F784911095177041F0D695C79594
S11315E057954795F794E7941A95C1F7E0E7F0E02B
S11315F068941590159135916591959105907FE2C8
S11316007395E118F10A430B560BC90BD009C0F7C7
S1131610E10CF11E431F561FC91FD01D7EF4703309
S113162011F48A95E6CFE894015030F0080F0AF4DB
S11316300027021708F4202F2395022F7A3328F06D
S113164079E37D932A95E9F710C07D932A9589F66D
S1131650069497956795379517951794E118F10AAD
S1131660430B560BC90BD00998F023957E917395C3
S11316707A3308F070E37C932013B8F77E9170619D
S11316807D9330F0839571E37D9370E32A95E1F7C0
S11316901124EF90FF900F911F91CF91DF91992723
S11316A087FD9095089591110C947D0C803219F06A
S11316B089508550C8F708959111089581548A512D
S11316C008F4805E855A0895FC010590061621F001
S11316D00020D9F7C00108953197CF010895FC0186
S11316E00590615070400110D8F7809590958E0F49
S11316F09F1F0895FC016150704001900110D8F7BC
S1131700809590958E0F9F1F0895CF93DF93EC01E2
S11317108B8180FF33C086FF0CC08F7B8B838E81CF
S11317209F8101969F838E838A8190E0DF91CF9180
S1131730089582FF15C0E881F9819081292F092E2F
S1131740000C330B80629923C1F03196F983E8834E
S11317508E819F8101969F838E83C9019927E6CF4D
S1131760EA85FB85CE0109959C0197FFF1CF8B811A
S11317702F3F3F4F31F090E2892B8B838FEF9FEF08
S1131780D5CF90E1F9CF0F931F93CF93DF93182F09
S1131790092FEB018B8181FD09C01FEF0FEF812F12
S11317A0902FDF91CF911F910F91089582FF14C064
S11317B02E813F818C819D81281739073CF4E88173
S11317C0F981CF0101969983888310838E819F814B
S11317D001969F838E83E3CFE885F985812F099550
S11317E0892BA1F3DACFB0E0A0E0E9EFFBE00C94A1
S11317F05909FE01359661917191AF0180912201E1
S1131800909123010E94E005E2E00C947509FB012C
S1131810238120FF11C026FD0FC08F3F980771F070
S113182082832F7D206423832681378121503109CF
S113183037832683992708958FEF9FEF0895FA0140
S1131840AA27283051F1203181F1E8946F936E7FFB
S11318506E5F7F4F8F4F9F4FAF4FB1E03ED0B4E0EC
S11318603CD0670F781F891F9A1FA11D680F791F2D
S11318708A1F911DA11D6A0F711D811D911DA11D3E
S113188020D009F468943F912AE0269F112430194E
S1131890305D3193DEF6CF010895462F4770405DE9
S11318A04193B3E00FD0C9F7F6CF462F4F70405D98
S11318B04A3318F0495D31FD4052419302D0A9F7F3
S11318C0EACFB4E0A6959795879577956795BA95ED
S11318D0C9F700976105710508959B01AC010A2EB3
S11318E006945795479537952795BA95C9F7620F8A
S11318F0731F841F951FA01D089599278827089595
S1071900F894FFCF85
S11319044F64637A7974616E6F3A20256C750D0A9D
S10519140000CD
S9030000FC
